{
  "contractName": "ToDoList",
  "abi": [
    {
      "anonymous": false,
      "inputs": [
        {
          "indexed": false,
          "internalType": "uint256",
          "name": "_index",
          "type": "uint256"
        },
        {
          "indexed": true,
          "internalType": "address",
          "name": "_sender",
          "type": "address"
        },
        {
          "indexed": false,
          "internalType": "string",
          "name": "_description",
          "type": "string"
        },
        {
          "indexed": false,
          "internalType": "enum ToDoList.listFlag",
          "name": "_flag",
          "type": "uint8"
        },
        {
          "indexed": false,
          "internalType": "string",
          "name": "_log",
          "type": "string"
        }
      ],
      "name": "ToDoLog",
      "type": "event"
    },
    {
      "inputs": [
        {
          "internalType": "address",
          "name": "",
          "type": "address"
        },
        {
          "internalType": "uint256",
          "name": "",
          "type": "uint256"
        }
      ],
      "name": "ToDo",
      "outputs": [
        {
          "internalType": "string",
          "name": "Description",
          "type": "string"
        },
        {
          "internalType": "enum ToDoList.listFlag",
          "name": "flag",
          "type": "uint8"
        }
      ],
      "stateMutability": "view",
      "type": "function",
      "constant": true
    },
    {
      "inputs": [
        {
          "internalType": "address",
          "name": "",
          "type": "address"
        }
      ],
      "name": "counter",
      "outputs": [
        {
          "internalType": "uint256",
          "name": "",
          "type": "uint256"
        }
      ],
      "stateMutability": "view",
      "type": "function",
      "constant": true
    },
    {
      "inputs": [
        {
          "internalType": "string",
          "name": "_description",
          "type": "string"
        }
      ],
      "name": "setList",
      "outputs": [],
      "stateMutability": "nonpayable",
      "type": "function"
    },
    {
      "inputs": [
        {
          "internalType": "uint256",
          "name": "_index",
          "type": "uint256"
        },
        {
          "internalType": "string",
          "name": "_description",
          "type": "string"
        }
      ],
      "name": "updateNoteDesc",
      "outputs": [],
      "stateMutability": "nonpayable",
      "type": "function"
    },
    {
      "inputs": [
        {
          "internalType": "uint256",
          "name": "_index",
          "type": "uint256"
        },
        {
          "internalType": "enum ToDoList.listFlag",
          "name": "_listFlag",
          "type": "uint8"
        }
      ],
      "name": "updateNoteFlag",
      "outputs": [],
      "stateMutability": "nonpayable",
      "type": "function"
    }
  ],
  "bytecode": "0x608060405234801561001057600080fd5b5061156f806100206000396000f3fe608060405234801561001057600080fd5b50600436106100575760003560e01c8063175d49db1461005c578063180036801461008d578063c12327b8146100a9578063eaadd137146100d9578063fd1e7d1e146100f5575b600080fd5b61007660048036038101906100719190610a4c565b610111565b604051610084929190610b93565b60405180910390f35b6100a760048036038101906100a29190610cf8565b6101d7565b005b6100c360048036038101906100be9190610d41565b6104f3565b6040516100d09190610d7d565b60405180910390f35b6100f360048036038101906100ee9190610d98565b61050b565b005b61010f600480360381019061010a9190610e19565b610739565b005b60016020528160005260406000206020528060005260406000206000915091505080600001805461014190610e88565b80601f016020809104026020016040519081016040528092919081815260200182805461016d90610e88565b80156101ba5780601f1061018f576101008083540402835291602001916101ba565b820191906000526020600020905b81548152906001019060200180831161019d57829003601f168201915b5050505050908060010160009054906101000a900460ff16905082565b600081511161021b576040517f08c379a000000000000000000000000000000000000000000000000000000000815260040161021290610f05565b60405180910390fd5b80600160003373ffffffffffffffffffffffffffffffffffffffff1673ffffffffffffffffffffffffffffffffffffffff1681526020019081526020016000206000600260003373ffffffffffffffffffffffffffffffffffffffff1673ffffffffffffffffffffffffffffffffffffffff16815260200190815260200160002054815260200190815260200160002060000190816102ba91906110d1565b506000600160003373ffffffffffffffffffffffffffffffffffffffff1673ffffffffffffffffffffffffffffffffffffffff1681526020019081526020016000206000600260003373ffffffffffffffffffffffffffffffffffffffff1673ffffffffffffffffffffffffffffffffffffffff16815260200190815260200160002054815260200190815260200160002060010160006101000a81548160ff0219169083600181111561037157610370610b1c565b5b02179055503373ffffffffffffffffffffffffffffffffffffffff167f94ea96accd82a40e5f077b5223ee2663f76534ffb3d27aa8d642032e5fec6a2d600260003373ffffffffffffffffffffffffffffffffffffffff1673ffffffffffffffffffffffffffffffffffffffff16815260200190815260200160002054600160003373ffffffffffffffffffffffffffffffffffffffff1673ffffffffffffffffffffffffffffffffffffffff1681526020019081526020016000206000600260003373ffffffffffffffffffffffffffffffffffffffff1673ffffffffffffffffffffffffffffffffffffffff168152602001908152602001600020548152602001908152602001600020600001600060405161049193929190611273565b60405180910390a26001600260003373ffffffffffffffffffffffffffffffffffffffff1673ffffffffffffffffffffffffffffffffffffffff16815260200190815260200160002060008282546104e991906112f3565b9250508190555050565b60026020528060005260406000206000915090505481565b81600260003373ffffffffffffffffffffffffffffffffffffffff1673ffffffffffffffffffffffffffffffffffffffff168152602001908152602001600020541161058c576040517f08c379a000000000000000000000000000000000000000000000000000000000815260040161058390611373565b60405180910390fd5b60008151116105d0576040517f08c379a00000000000000000000000000000000000000000000000000000000081526004016105c790610f05565b60405180910390fd5b80600160003373ffffffffffffffffffffffffffffffffffffffff1673ffffffffffffffffffffffffffffffffffffffff1681526020019081526020016000206000848152602001908152602001600020600001908161063091906110d1565b503373ffffffffffffffffffffffffffffffffffffffff167f94ea96accd82a40e5f077b5223ee2663f76534ffb3d27aa8d642032e5fec6a2d83600160003373ffffffffffffffffffffffffffffffffffffffff1673ffffffffffffffffffffffffffffffffffffffff1681526020019081526020016000206000868152602001908152602001600020600001600160003373ffffffffffffffffffffffffffffffffffffffff1673ffffffffffffffffffffffffffffffffffffffff168152602001908152602001600020600087815260200190815260200160002060010160009054906101000a900460ff1660405161072d939291906113df565b60405180910390a25050565b81600260003373ffffffffffffffffffffffffffffffffffffffff1673ffffffffffffffffffffffffffffffffffffffff16815260200190815260200160002054116107ba576040517f08c379a00000000000000000000000000000000000000000000000000000000081526004016107b190611373565b60405180910390fd5b8060018111156107cd576107cc610b1c565b5b6001808111156107e0576107df610b1c565b5b1015610821576040517f08c379a00000000000000000000000000000000000000000000000000000000081526004016108189061147c565b60405180910390fd5b80600160003373ffffffffffffffffffffffffffffffffffffffff1673ffffffffffffffffffffffffffffffffffffffff168152602001908152602001600020600084815260200190815260200160002060010160006101000a81548160ff0219169083600181111561089757610896610b1c565b5b02179055503373ffffffffffffffffffffffffffffffffffffffff167f94ea96accd82a40e5f077b5223ee2663f76534ffb3d27aa8d642032e5fec6a2d83600160003373ffffffffffffffffffffffffffffffffffffffff1673ffffffffffffffffffffffffffffffffffffffff1681526020019081526020016000206000868152602001908152602001600020600001600160003373ffffffffffffffffffffffffffffffffffffffff1673ffffffffffffffffffffffffffffffffffffffff168152602001908152602001600020600087815260200190815260200160002060010160009054906101000a900460ff16604051610998939291906114e8565b60405180910390a25050565b6000604051905090565b600080fd5b600080fd5b600073ffffffffffffffffffffffffffffffffffffffff82169050919050565b60006109e3826109b8565b9050919050565b6109f3816109d8565b81146109fe57600080fd5b50565b600081359050610a10816109ea565b92915050565b6000819050919050565b610a2981610a16565b8114610a3457600080fd5b50565b600081359050610a4681610a20565b92915050565b60008060408385031215610a6357610a626109ae565b5b6000610a7185828601610a01565b9250506020610a8285828601610a37565b9150509250929050565b600081519050919050565b600082825260208201905092915050565b60005b83811015610ac6578082015181840152602081019050610aab565b60008484015250505050565b6000601f19601f8301169050919050565b6000610aee82610a8c565b610af88185610a97565b9350610b08818560208601610aa8565b610b1181610ad2565b840191505092915050565b7f4e487b7100000000000000000000000000000000000000000000000000000000600052602160045260246000fd5b60028110610b5c57610b5b610b1c565b5b50565b6000819050610b6d82610b4b565b919050565b6000610b7d82610b5f565b9050919050565b610b8d81610b72565b82525050565b60006040820190508181036000830152610bad8185610ae3565b9050610bbc6020830184610b84565b9392505050565b600080fd5b600080fd5b7f4e487b7100000000000000000000000000000000000000000000000000000000600052604160045260246000fd5b610c0582610ad2565b810181811067ffffffffffffffff82111715610c2457610c23610bcd565b5b80604052505050565b6000610c376109a4565b9050610c438282610bfc565b919050565b600067ffffffffffffffff821115610c6357610c62610bcd565b5b610c6c82610ad2565b9050602081019050919050565b82818337600083830152505050565b6000610c9b610c9684610c48565b610c2d565b905082815260208101848484011115610cb757610cb6610bc8565b5b610cc2848285610c79565b509392505050565b600082601f830112610cdf57610cde610bc3565b5b8135610cef848260208601610c88565b91505092915050565b600060208284031215610d0e57610d0d6109ae565b5b600082013567ffffffffffffffff811115610d2c57610d2b6109b3565b5b610d3884828501610cca565b91505092915050565b600060208284031215610d5757610d566109ae565b5b6000610d6584828501610a01565b91505092915050565b610d7781610a16565b82525050565b6000602082019050610d926000830184610d6e565b92915050565b60008060408385031215610daf57610dae6109ae565b5b6000610dbd85828601610a37565b925050602083013567ffffffffffffffff811115610dde57610ddd6109b3565b5b610dea85828601610cca565b9150509250929050565b60028110610e0157600080fd5b50565b600081359050610e1381610df4565b92915050565b60008060408385031215610e3057610e2f6109ae565b5b6000610e3e85828601610a37565b9250506020610e4f85828601610e04565b9150509250929050565b7f4e487b7100000000000000000000000000000000000000000000000000000000600052602260045260246000fd5b60006002820490506001821680610ea057607f821691505b602082108103610eb357610eb2610e59565b5b50919050565b7f4465736372697074696f6e20697320456d707479000000000000000000000000600082015250565b6000610eef601483610a97565b9150610efa82610eb9565b602082019050919050565b60006020820190508181036000830152610f1e81610ee2565b9050919050565b60008190508160005260206000209050919050565b60006020601f8301049050919050565b600082821b905092915050565b600060088302610f877fffffffffffffffffffffffffffffffffffffffffffffffffffffffffffffffff82610f4a565b610f918683610f4a565b95508019841693508086168417925050509392505050565b6000819050919050565b6000610fce610fc9610fc484610a16565b610fa9565b610a16565b9050919050565b6000819050919050565b610fe883610fb3565b610ffc610ff482610fd5565b848454610f57565b825550505050565b600090565b611011611004565b61101c818484610fdf565b505050565b5b8181101561104057611035600082611009565b600181019050611022565b5050565b601f8211156110855761105681610f25565b61105f84610f3a565b8101602085101561106e578190505b61108261107a85610f3a565b830182611021565b50505b505050565b600082821c905092915050565b60006110a86000198460080261108a565b1980831691505092915050565b60006110c18383611097565b9150826002028217905092915050565b6110da82610a8c565b67ffffffffffffffff8111156110f3576110f2610bcd565b5b6110fd8254610e88565b611108828285611044565b600060209050601f83116001811461113b5760008415611129578287015190505b61113385826110b5565b86555061119b565b601f19841661114986610f25565b60005b828110156111715784890151825560018201915060208501945060208101905061114c565b8683101561118e578489015161118a601f891682611097565b8355505b6001600288020188555050505b505050505050565b600081546111b081610e88565b6111ba8186610a97565b945060018216600081146111d557600181146111eb5761121e565b60ff19831686528115156020028601935061121e565b6111f485610f25565b60005b83811015611216578154818901526001820191506020810190506111f7565b808801955050505b50505092915050565b7f496e736572746564206120446f00000000000000000000000000000000000000600082015250565b600061125d600d83610a97565b915061126882611227565b602082019050919050565b60006080820190506112886000830186610d6e565b818103602083015261129a81856111a3565b90506112a96040830184610b84565b81810360608301526112ba81611250565b9050949350505050565b7f4e487b7100000000000000000000000000000000000000000000000000000000600052601160045260246000fd5b60006112fe82610a16565b915061130983610a16565b9250828201905080821115611321576113206112c4565b5b92915050565b7f4e6f2070726f70657220496e6465782072616e67650000000000000000000000600082015250565b600061135d601583610a97565b915061136882611327565b602082019050919050565b6000602082019050818103600083015261138c81611350565b9050919050565b7f55706461746564204465736372697074696f6e00000000000000000000000000600082015250565b60006113c9601383610a97565b91506113d482611393565b602082019050919050565b60006080820190506113f46000830186610d6e565b818103602083015261140681856111a3565b90506114156040830184610b84565b8181036060830152611426816113bc565b9050949350505050565b7f4e6f2070726f70657220496e64657820456e756d2072616e6765000000000000600082015250565b6000611466601a83610a97565b915061147182611430565b602082019050919050565b6000602082019050818103600083015261149581611459565b9050919050565b7f5570646174656420466c61670000000000000000000000000000000000000000600082015250565b60006114d2600c83610a97565b91506114dd8261149c565b602082019050919050565b60006080820190506114fd6000830186610d6e565b818103602083015261150f81856111a3565b905061151e6040830184610b84565b818103606083015261152f816114c5565b905094935050505056fea264697066735822122096a6975e9454a9d4744e6b200ac62d50f36b542f299d9482a1c3dd17fa90198f64736f6c63430008130033",
  "immutableReferences": {},
  "source": "// SPDX-License-Identifier:UnDefined\r\n\r\npragma solidity 0.8.19;\r\n\r\ncontract ToDoList{\r\n\r\n    enum listFlag {\r\n        NotDone,\r\n        Done\r\n    }\r\n\r\n    struct Note{\r\n        string Description;\r\n        listFlag flag;\r\n    }\r\n\r\n    mapping(uint => Note) MList;\r\n\r\n    mapping(address => mapping(uint => Note)) public ToDo;\r\n\r\n    mapping(address => uint) public counter;\r\n\r\n    event ToDoLog(uint _index, address indexed _sender, string _description, listFlag _flag, string _log);\r\n\r\n    function setList(string memory _description) public{\r\n\r\n        require(bytes(_description).length > 0,\"Description is Empty\");\r\n\r\n        ToDo[msg.sender][counter[msg.sender]].Description = _description;\r\n        ToDo[msg.sender][counter[msg.sender]].flag = listFlag.NotDone;\r\n\r\n        emit ToDoLog(\r\n            counter[msg.sender], \r\n            msg.sender, \r\n            ToDo[msg.sender][counter[msg.sender]].Description, \r\n            listFlag.NotDone, \r\n            \"Inserted a Do\"\r\n        );\r\n        \r\n        counter[msg.sender] += 1;\r\n    }\r\n\r\n    function updateNoteDesc(uint _index, string memory _description) public{\r\n\r\n        require(counter[msg.sender] > _index,\"No proper Index range\");\r\n        require(bytes(_description).length > 0,\"Description is Empty\");\r\n\r\n        ToDo[msg.sender][_index].Description = _description;\r\n\r\n        emit ToDoLog(\r\n            _index, \r\n            msg.sender, \r\n            ToDo[msg.sender][_index].Description,\r\n            ToDo[msg.sender][_index].flag, \r\n            \"Updated Description\"\r\n        );\r\n    }\r\n    \r\n    function updateNoteFlag(uint _index, listFlag _listFlag) public{\r\n\r\n        require(counter[msg.sender] > _index,\"No proper Index range\");\r\n        require(listFlag.Done >= _listFlag,\"No proper Index Enum range\");\r\n\r\n        ToDo[msg.sender][_index].flag = _listFlag;\r\n\r\n        emit ToDoLog(\r\n            _index, \r\n            msg.sender, \r\n            ToDo[msg.sender][_index].Description,\r\n            ToDo[msg.sender][_index].flag, \r\n            \"Updated Flag\"\r\n        );\r\n    }\r\n\r\n}",
  "sourcePath": "C:\\Users\\hp\\Desktop\\Blockchain\\04-ToDoList\\contracts\\ToDoList.sol",
  "compiler": {
    "name": "solc",
    "version": "0.8.19+commit.7dd6d404.Emscripten.clang"
  },
  "schemaVersion": "3.4.14",
  "updatedAt": "2023-07-05T12:10:25.627Z",
  "networkType": "ethereum",
  "devdoc": {
    "kind": "dev",
    "methods": {},
    "version": 1
  },
  "userdoc": {
    "kind": "user",
    "methods": {},
    "version": 1
  }
}